{"abi":[{"type":"constructor","inputs":[{"name":"_vouchersContract","type":"address","internalType":"address"},{"name":"_minOfferValue","type":"uint256","internalType":"uint256"}],"stateMutability":"nonpayable"},{"type":"function","name":"acceptOffer","inputs":[{"name":"offerId","type":"uint256","internalType":"uint256"}],"outputs":[],"stateMutability":"nonpayable"},{"type":"function","name":"cancelOffer","inputs":[{"name":"offerId","type":"uint256","internalType":"uint256"}],"outputs":[],"stateMutability":"nonpayable"},{"type":"function","name":"getOffer","inputs":[{"name":"offerId","type":"uint256","internalType":"uint256"}],"outputs":[{"name":"","type":"tuple","internalType":"struct KektvVouchersOffersV3.Offer","components":[{"name":"offerId","type":"uint256","internalType":"uint256"},{"name":"offerer","type":"address","internalType":"address"},{"name":"voucherOwner","type":"address","internalType":"address"},{"name":"tokenId","type":"uint256","internalType":"uint256"},{"name":"amount","type":"uint256","internalType":"uint256"},{"name":"offerPrice","type":"uint256","internalType":"uint256"},{"name":"createdAt","type":"uint256","internalType":"uint256"},{"name":"active","type":"bool","internalType":"bool"}]}],"stateMutability":"view"},{"type":"function","name":"getReceivedOffers","inputs":[{"name":"user","type":"address","internalType":"address"}],"outputs":[{"name":"","type":"uint256[]","internalType":"uint256[]"}],"stateMutability":"view"},{"type":"function","name":"getTokenOffers","inputs":[{"name":"tokenId","type":"uint256","internalType":"uint256"}],"outputs":[{"name":"","type":"uint256[]","internalType":"uint256[]"}],"stateMutability":"view"},{"type":"function","name":"getTotalOffers","inputs":[],"outputs":[{"name":"","type":"uint256","internalType":"uint256"}],"stateMutability":"view"},{"type":"function","name":"getUserOffers","inputs":[{"name":"user","type":"address","internalType":"address"}],"outputs":[{"name":"","type":"uint256[]","internalType":"uint256[]"}],"stateMutability":"view"},{"type":"function","name":"makeOffer","inputs":[{"name":"tokenId","type":"uint256","internalType":"uint256"},{"name":"voucherAmount","type":"uint256","internalType":"uint256"},{"name":"voucherOwner","type":"address","internalType":"address"}],"outputs":[{"name":"","type":"uint256","internalType":"uint256"}],"stateMutability":"payable"},{"type":"function","name":"minOfferValue","inputs":[],"outputs":[{"name":"","type":"uint256","internalType":"uint256"}],"stateMutability":"view"},{"type":"function","name":"offerCounter","inputs":[],"outputs":[{"name":"","type":"uint256","internalType":"uint256"}],"stateMutability":"view"},{"type":"function","name":"offers","inputs":[{"name":"","type":"uint256","internalType":"uint256"}],"outputs":[{"name":"offerId","type":"uint256","internalType":"uint256"},{"name":"offerer","type":"address","internalType":"address"},{"name":"voucherOwner","type":"address","internalType":"address"},{"name":"tokenId","type":"uint256","internalType":"uint256"},{"name":"amount","type":"uint256","internalType":"uint256"},{"name":"offerPrice","type":"uint256","internalType":"uint256"},{"name":"createdAt","type":"uint256","internalType":"uint256"},{"name":"active","type":"bool","internalType":"bool"}],"stateMutability":"view"},{"type":"function","name":"owner","inputs":[],"outputs":[{"name":"","type":"address","internalType":"address"}],"stateMutability":"view"},{"type":"function","name":"pause","inputs":[],"outputs":[],"stateMutability":"nonpayable"},{"type":"function","name":"paused","inputs":[],"outputs":[{"name":"","type":"bool","internalType":"bool"}],"stateMutability":"view"},{"type":"function","name":"receivedOffers","inputs":[{"name":"","type":"address","internalType":"address"},{"name":"","type":"uint256","internalType":"uint256"}],"outputs":[{"name":"","type":"uint256","internalType":"uint256"}],"stateMutability":"view"},{"type":"function","name":"rejectOffer","inputs":[{"name":"offerId","type":"uint256","internalType":"uint256"}],"outputs":[],"stateMutability":"nonpayable"},{"type":"function","name":"renounceOwnership","inputs":[],"outputs":[],"stateMutability":"nonpayable"},{"type":"function","name":"tokenOffers","inputs":[{"name":"","type":"uint256","internalType":"uint256"},{"name":"","type":"uint256","internalType":"uint256"}],"outputs":[{"name":"","type":"uint256","internalType":"uint256"}],"stateMutability":"view"},{"type":"function","name":"transferOwnership","inputs":[{"name":"newOwner","type":"address","internalType":"address"}],"outputs":[],"stateMutability":"nonpayable"},{"type":"function","name":"unpause","inputs":[],"outputs":[],"stateMutability":"nonpayable"},{"type":"function","name":"updateMinOfferValue","inputs":[{"name":"newMinValue","type":"uint256","internalType":"uint256"}],"outputs":[],"stateMutability":"nonpayable"},{"type":"function","name":"userOffers","inputs":[{"name":"","type":"address","internalType":"address"},{"name":"","type":"uint256","internalType":"uint256"}],"outputs":[{"name":"","type":"uint256","internalType":"uint256"}],"stateMutability":"view"},{"type":"function","name":"vouchersContract","inputs":[],"outputs":[{"name":"","type":"address","internalType":"contract IERC1155"}],"stateMutability":"view"},{"type":"event","name":"OfferAccepted","inputs":[{"name":"offerId","type":"uint256","indexed":true,"internalType":"uint256"},{"name":"offerer","type":"address","indexed":true,"internalType":"address"},{"name":"voucherOwner","type":"address","indexed":true,"internalType":"address"},{"name":"tokenId","type":"uint256","indexed":false,"internalType":"uint256"},{"name":"amount","type":"uint256","indexed":false,"internalType":"uint256"},{"name":"offerPrice","type":"uint256","indexed":false,"internalType":"uint256"}],"anonymous":false},{"type":"event","name":"OfferCancelled","inputs":[{"name":"offerId","type":"uint256","indexed":true,"internalType":"uint256"},{"name":"offerer","type":"address","indexed":true,"internalType":"address"}],"anonymous":false},{"type":"event","name":"OfferMade","inputs":[{"name":"offerId","type":"uint256","indexed":true,"internalType":"uint256"},{"name":"offerer","type":"address","indexed":true,"internalType":"address"},{"name":"voucherOwner","type":"address","indexed":true,"internalType":"address"},{"name":"tokenId","type":"uint256","indexed":false,"internalType":"uint256"},{"name":"amount","type":"uint256","indexed":false,"internalType":"uint256"},{"name":"offerPrice","type":"uint256","indexed":false,"internalType":"uint256"}],"anonymous":false},{"type":"event","name":"OfferRejected","inputs":[{"name":"offerId","type":"uint256","indexed":true,"internalType":"uint256"},{"name":"voucherOwner","type":"address","indexed":true,"internalType":"address"}],"anonymous":false},{"type":"event","name":"OwnershipTransferred","inputs":[{"name":"previousOwner","type":"address","indexed":true,"internalType":"address"},{"name":"newOwner","type":"address","indexed":true,"internalType":"address"}],"anonymous":false},{"type":"event","name":"Paused","inputs":[{"name":"account","type":"address","indexed":false,"internalType":"address"}],"anonymous":false},{"type":"event","name":"Unpaused","inputs":[{"name":"account","type":"address","indexed":false,"internalType":"address"}],"anonymous":false},{"type":"error","name":"InsufficientOfferValue","inputs":[{"name":"sent","type":"uint256","internalType":"uint256"},{"name":"required","type":"uint256","internalType":"uint256"}]},{"type":"error","name":"InsufficientVoucherBalance","inputs":[]},{"type":"error","name":"OfferNotActive","inputs":[]},{"type":"error","name":"OnlyOfferer","inputs":[]},{"type":"error","name":"OnlyVoucherOwner","inputs":[]},{"type":"error","name":"TransferFailed","inputs":[]},{"type":"error","name":"VoucherTransferFailed","inputs":[]}],"bytecode":{"object":"0x60c0346100ac57601f61122a38819003918201601f19168301916001600160401b038311848410176100b05780849260409485528339810103126100ac5780516001600160a01b03811691908290036100ac57602001519060015f5560ff196001541660015561006e336100c4565b60805260a05261007d336100c4565b60405161110a908161012082396080518181816103600152610b9d015260a0518181816109390152610d810152f35b5f80fd5b634e487b7160e01b5f52604160045260245ffd5b60018054610100600160a81b03198116600884811b610100600160a81b0316919091179092556001600160a01b0392831692911c167f8be0079c531659141344cd1fd0a4f28419497f9722a3daafe3b4186f6b6457e05f80a356fe6080604081815260049182361015610015575f80fd5b5f9260e08435811c92836301388d3714610e195750826312b4b18014610da457826338bf0ad814610d685782633f4ba83a14610cd15782634579268a14610bcc578263474f289114610b875782635c975abb14610b625782635d774ed314610af45782636457c4f8146108fb578263661d2c2c1461087a578263715018a6146108195782638456cb59146107be57826388b10c75146106fd5782638a72ea6a1461067a575081638da5cb5b1461064d578163944985f51461061557816395e4d5fd146105cd578163b7a3c1da146105ae578163bd5fec6514610554578163c815729d146102f1578163ef706adf1461021f578163f2fde38b14610142575063fbf6c2c714610121575f80fd5b3461013e578160031936011261013e576020906002549051908152f35b5080fd5b90503461021b57602036600319011261021b5761015d610eb9565b610165610efc565b6001600160a01b038181169390929084156101c957505060018054610100600160a81b03198116600893841b610100600160a81b031617909155901c167f8be0079c531659141344cd1fd0a4f28419497f9722a3daafe3b4186f6b6457e05f80a380f35b906020608492519162461bcd60e51b8352820152602660248201527f4f776e61626c653a206e6577206f776e657220697320746865207a65726f206160448201526564647265737360d01b6064820152fd5b8280fd5b9190503461021b57602036600319011261021b5781359161023e611027565b8284526003602052818420906007820192835460ff8116156102e357600184019360018060a01b039586865416928333036102d35760ff19169055600501548791829182918291905af161029061107b565b50156102c65750505416907f1f51377b3e685a0e2419f9bb4ba7c07ec54936353ba3d0fb3c6538dab67662228380a36001815580f35b516312171d8360e31b8152fd5b845163aab73e6560e01b81528690fd5b5051634d80826b60e11b8152fd5b9190503461021b57602091826003193601126104d557803590610312610fe3565b61031a611027565b81855260038452828520600781019384549160ff8316156105445761033e816110ba565b60028201546001600160a01b0392908316801561053b573303610528575b89837f0000000000000000000000000000000000000000000000000000000000000000169260038301998a549186885191627eeac760e11b8352169c8d8b83015283602483015280826044818a5afa94851561051d57946104e9575b50508884019788548094106104d957908d929160ff1916905560018401948686541693813b156104d5578360c4928f94928d938c519889978896637921219560e11b885287015260248601526044850152606484015260a060848401528160a48401525af180156104cb5761049c575b50600501948980808089548d5af161043e61107b565b501561048e5750549554925493549151928352602083019390935260408201529216917fc383951144737203fd210a6c718fe525672cd654d1daca911af3e9a6594a6ea890606090a46001815580f35b83516312171d8360e31b8152fd5b67ffffffffffffffff819b929b116104b8578452986005610428565b634e487b7160e01b825260418752602482fd5b85513d8d823e3d90fd5b8380fd5b8751637764f59160e01b81528a90fd5b9080929450813d8311610516575b6105018183610f88565b810103126105125751915f806103b8565b8c80fd5b503d6104f7565b8951903d90823e3d90fd5b8351600162bd85e560e01b031981528690fd5b5033915061035c565b8151634d80826b60e11b81528490fd5b8284346105ab57816003193601126105ab5761056e610eb9565b6001600160a01b03168152602092909252808220805460243593908410156105ab575060209261059d91610ed3565b91905490519160031b1c8152f35b80fd5b50503461013e578160031936011261013e576020906002549051908152f35b50503461013e578060031936011261013e576105e7610eb9565b6001600160a01b031682526005602052808220805460243593908410156105ab575060209261059d91610ed3565b8284346105ab57816003193601126105ab576024359235815260066020528181209081548410156105ab575060209261059d91610ed3565b50503461013e578160031936011261013e57600154905160089190911c6001600160a01b03168152602090f35b9150346104d55760203660031901126104d55782610100948235815260036020522080549360018060a01b03928360018401541693600284015416906003840154908401549160058501549360ff6007600688015497015416968151998a5260208a01528801526060870152608086015260a085015260c0840152151590820152f35b5090503461021b57602036600319011261021b5780359161071c611027565b828452600360205280842091600783019182549360ff8516156102e3576002810180546001600160a01b039691959190871633036107ae578880938193829360ff19169055600589600183015416910154905af161077861107b565b50156102c65750505416907f1b15bc319d6f29dd5bcf76cd2b89490ed2fe49f1a31fb6b8624b0029fd85c2658380a36001815580f35b5050505163ff427a1b60e01b8152fd5b5050503461013e578160031936011261013e5760207f62e78cea01bee320cd4e420270b5ea74000d11b0c9f74754ebdbfc544b05a258916107fd610efc565b610805610fe3565b600160ff198154161760015551338152a180f35b84346105ab57806003193601126105ab57610832610efc565b60018054610100600160a81b03198116909155819060081c6001600160a01b03167f8be0079c531659141344cd1fd0a4f28419497f9722a3daafe3b4186f6b6457e08280a380f35b8482853461021b57602091826003193601126104d5576001600160a01b036108a0610eb9565b16845282528083209281518093808654928381520195835280832092905b8282106108e4576108e086866108d6828b0383610f88565b5191829182610e7f565b0390f35b8354875295860195600193840193909101906108be565b91509260606003193601126105ab578335906001600160a01b0360443581811691602435918390036104d55761092f610fe3565b610937611027565b7f0000000000000000000000000000000000000000000000000000000000000000803410610ad65750600254955f198714610ac35787989185916001899a99016002558989519261098784610f57565b8184528960209d8e9283870190338252828801928c84526060890194855260808901958c875260a08a019734895260c08b0199428b528b019b60018d5252600390528d20975188558060018901925116916bffffffffffffffffffffffff60a01b9283825416179055600288019251169082541617905551600385015551858401555160058301555160068201556007019051151560ff198254169060ff1617905533845287528585842090610a3c91610faa565b838352600687528585842090610a5191610faa565b85821515610aa16001967f1a8e4806e9c3198b224bf5fd328ba7488ee72334ba823076cf52dbfce562ffae92610aab575b8851908152602081019490945234604085015233939081906060820190565b0390a45551908152f35b85875260058b52610abe848a8920610faa565b610a82565b634e487b7160e01b855260118952602485fd5b87516329a56d3760e01b815234818b01526024810191909152604490fd5b838286346105ab5760203660031901126105ab57506020608492610b16610efc565b5162461bcd60e51b815291820152602660248201527f557365206e657720636f6e747261637420666f72206d696e2076616c7565206360448201526568616e67657360d01b6064820152fd5b5050503461013e578160031936011261013e5760209060ff6001541690519015158152f35b5050503461013e578160031936011261013e57517f00000000000000000000000000000000000000000000000000000000000000006001600160a01b03168152602090f35b915091346104d55760203660031901126104d557808461010095848351610bf281610f57565b82815282602082015282858201528260608201528260808201528260a08201528260c0820152015284358152600360205220908051918291610c3383610f57565b81549586845260018060a01b039182600185015416926020860193845280600286015416828701908152816003870154946060890195865287015495608089019687528a60ff600760058b01549a60a08d019b8c5260c060068201549d019c8d520154169a019915158a5284519b8c52511660208b01525116908801525160608701525160808601525160a08501525160c084015251151590820152f35b5090503461021b578260031936011261021b57610cec610efc565b6001549060ff821615610d2e575060ff1916600155513381527f5db9ee0a495bf2e6ff9c91a7834c1ba4fdd244a5e8aa4e537bd38aeae4b073aa90602090a180f35b606490602084519162461bcd60e51b8352820152601460248201527314185d5cd8589b194e881b9bdd081c185d5cd95960621b6044820152fd5b5050503461013e578160031936011261013e57602090517f00000000000000000000000000000000000000000000000000000000000000008152f35b5050503461013e576020908160031936011261021b576001600160a01b03610dca610eb9565b168352600582528083209281518093808654928381520195835280832092905b828210610e02576108e086866108d6828b0383610f88565b835487529586019560019384019390910190610dea565b93925050346104d55760209081600319360112610e7b573584526006815281842080548085529085528185208483019590925b828210610e64576108e086866108d6828b0383610f88565b835487529586019560019384019390910190610e4c565b8480fd5b602090816040818301928281528551809452019301915f5b828110610ea5575050505090565b835185529381019392810192600101610e97565b600435906001600160a01b0382168203610ecf57565b5f80fd5b8054821015610ee8575f5260205f2001905f90565b634e487b7160e01b5f52603260045260245ffd5b60015460081c6001600160a01b03163303610f1357565b606460405162461bcd60e51b815260206004820152602060248201527f4f776e61626c653a2063616c6c6572206973206e6f7420746865206f776e65726044820152fd5b610100810190811067ffffffffffffffff821117610f7457604052565b634e487b7160e01b5f52604160045260245ffd5b90601f8019910116810190811067ffffffffffffffff821117610f7457604052565b805468010000000000000000811015610f7457610fcc91600182018155610ed3565b819291549060031b91821b915f19901b1916179055565b60ff60015416610fef57565b60405162461bcd60e51b815260206004820152601060248201526f14185d5cd8589b194e881c185d5cd95960821b6044820152606490fd5b60025f54146110365760025f55565b60405162461bcd60e51b815260206004820152601f60248201527f5265656e7472616e637947756172643a207265656e7472616e742063616c6c006044820152606490fd5b3d156110b5573d9067ffffffffffffffff8211610f7457604051916110aa601f8201601f191660200184610f88565b82523d5f602084013e565b606090565b600201546001600160a01b0316806110d157503390565b9056fea2646970667358221220bfb2734fb22cfc94c2e05811b563e90f141037130242f40bd11510b715301e3064736f6c63430008140033","linkReferences":{}},"methodIdentifiers":{"acceptOffer(uint256)":"c815729d","cancelOffer(uint256)":"ef706adf","getOffer(uint256)":"4579268a","getReceivedOffers(address)":"12b4b180","getTokenOffers(uint256)":"01388d37","getTotalOffers()":"fbf6c2c7","getUserOffers(address)":"661d2c2c","makeOffer(uint256,uint256,address)":"6457c4f8","minOfferValue()":"38bf0ad8","offerCounter()":"b7a3c1da","offers(uint256)":"8a72ea6a","owner()":"8da5cb5b","pause()":"8456cb59","paused()":"5c975abb","receivedOffers(address,uint256)":"95e4d5fd","rejectOffer(uint256)":"88b10c75","renounceOwnership()":"715018a6","tokenOffers(uint256,uint256)":"944985f5","transferOwnership(address)":"f2fde38b","unpause()":"3f4ba83a","updateMinOfferValue(uint256)":"5d774ed3","userOffers(address,uint256)":"bd5fec65","vouchersContract()":"474f2891"},"id":33}