{"abi":[{"type":"constructor","inputs":[],"stateMutability":"nonpayable"},{"type":"function","name":"balanceOf","inputs":[{"name":"account","type":"address","internalType":"address"},{"name":"id","type":"uint256","internalType":"uint256"}],"outputs":[{"name":"","type":"uint256","internalType":"uint256"}],"stateMutability":"view"},{"type":"function","name":"balanceOfBatch","inputs":[{"name":"accounts","type":"address[]","internalType":"address[]"},{"name":"ids","type":"uint256[]","internalType":"uint256[]"}],"outputs":[{"name":"","type":"uint256[]","internalType":"uint256[]"}],"stateMutability":"view"},{"type":"function","name":"burn","inputs":[{"name":"from","type":"address","internalType":"address"},{"name":"id","type":"uint256","internalType":"uint256"},{"name":"amount","type":"uint256","internalType":"uint256"}],"outputs":[],"stateMutability":"nonpayable"},{"type":"function","name":"isApprovedForAll","inputs":[{"name":"account","type":"address","internalType":"address"},{"name":"operator","type":"address","internalType":"address"}],"outputs":[{"name":"","type":"bool","internalType":"bool"}],"stateMutability":"view"},{"type":"function","name":"mint","inputs":[{"name":"to","type":"address","internalType":"address"},{"name":"id","type":"uint256","internalType":"uint256"},{"name":"amount","type":"uint256","internalType":"uint256"},{"name":"data","type":"bytes","internalType":"bytes"}],"outputs":[],"stateMutability":"nonpayable"},{"type":"function","name":"mintBatch","inputs":[{"name":"to","type":"address","internalType":"address"},{"name":"ids","type":"uint256[]","internalType":"uint256[]"},{"name":"amounts","type":"uint256[]","internalType":"uint256[]"},{"name":"data","type":"bytes","internalType":"bytes"}],"outputs":[],"stateMutability":"nonpayable"},{"type":"function","name":"safeBatchTransferFrom","inputs":[{"name":"from","type":"address","internalType":"address"},{"name":"to","type":"address","internalType":"address"},{"name":"ids","type":"uint256[]","internalType":"uint256[]"},{"name":"amounts","type":"uint256[]","internalType":"uint256[]"},{"name":"data","type":"bytes","internalType":"bytes"}],"outputs":[],"stateMutability":"nonpayable"},{"type":"function","name":"safeTransferFrom","inputs":[{"name":"from","type":"address","internalType":"address"},{"name":"to","type":"address","internalType":"address"},{"name":"id","type":"uint256","internalType":"uint256"},{"name":"amount","type":"uint256","internalType":"uint256"},{"name":"data","type":"bytes","internalType":"bytes"}],"outputs":[],"stateMutability":"nonpayable"},{"type":"function","name":"setApprovalForAll","inputs":[{"name":"operator","type":"address","internalType":"address"},{"name":"approved","type":"bool","internalType":"bool"}],"outputs":[],"stateMutability":"nonpayable"},{"type":"function","name":"supportsInterface","inputs":[{"name":"interfaceId","type":"bytes4","internalType":"bytes4"}],"outputs":[{"name":"","type":"bool","internalType":"bool"}],"stateMutability":"view"},{"type":"function","name":"uri","inputs":[{"name":"","type":"uint256","internalType":"uint256"}],"outputs":[{"name":"","type":"string","internalType":"string"}],"stateMutability":"view"},{"type":"event","name":"ApprovalForAll","inputs":[{"name":"account","type":"address","indexed":true,"internalType":"address"},{"name":"operator","type":"address","indexed":true,"internalType":"address"},{"name":"approved","type":"bool","indexed":false,"internalType":"bool"}],"anonymous":false},{"type":"event","name":"TransferBatch","inputs":[{"name":"operator","type":"address","indexed":true,"internalType":"address"},{"name":"from","type":"address","indexed":true,"internalType":"address"},{"name":"to","type":"address","indexed":true,"internalType":"address"},{"name":"ids","type":"uint256[]","indexed":false,"internalType":"uint256[]"},{"name":"values","type":"uint256[]","indexed":false,"internalType":"uint256[]"}],"anonymous":false},{"type":"event","name":"TransferSingle","inputs":[{"name":"operator","type":"address","indexed":true,"internalType":"address"},{"name":"from","type":"address","indexed":true,"internalType":"address"},{"name":"to","type":"address","indexed":true,"internalType":"address"},{"name":"id","type":"uint256","indexed":false,"internalType":"uint256"},{"name":"value","type":"uint256","indexed":false,"internalType":"uint256"}],"anonymous":false},{"type":"event","name":"URI","inputs":[{"name":"value","type":"string","indexed":false,"internalType":"string"},{"name":"id","type":"uint256","indexed":true,"internalType":"uint256"}],"anonymous":false}],"bytecode":{"object":"0x60803461010a5760408101906001600160401b038211818310176100f657602091604052601a8152017f68747470733a2f2f6d6f636b2e7572692f7b69647d2e6a736f6e0000000000008152600254906001918281811c911680156100ec575b60208210146100d857601f8111610091575b815165ffffffffffff1916603417600255604051611529908161010f8239f35b60025f52601f0160051c7f405787fa12a823e0f2b7631cc41b3ba8828b3321ca811111fa75cd3aa3bb5ace908101905b8181106100ce5750610071565b5f815583016100c1565b634e487b7160e01b5f52602260045260245ffd5b90607f169061005f565b634e487b7160e01b5f52604160045260245ffd5b5f80fdfe60406080815260049081361015610014575f80fd5b5f90813560e01c8062fdd58e14610f0357806301ffc9a714610e955780630e89341c14610d805780631f7fdffa14610ba15780632eb2c2d6146108e85780634e1273f414610746578063731133e9146105d6578063a22cb465146104f4578063e985e9c5146104a7578063f242432a146101f95763f5298aca14610096575f80fd5b346101f55760603660031901126101f5576100af610f32565b6001600160a01b031660243560443582156101a6576100cd82611467565b506100d781611467565b508484516100e481610fa0565b5281855260209585875284862084875287528486205490828210610157575090859681849388969561015499528683528787208688528352038686205585519283528201527fc3d58168c5ae7397731d063d5bbf3d657854427343f4c083240f7aacaa2d0f62843392a451610fa0565b80f35b855162461bcd60e51b81529081018890526024808201527f455243313135353a206275726e20616d6f756e7420657863656564732062616c604482015263616e636560e01b6064820152608490fd5b835162461bcd60e51b8152602081880152602360248201527f455243313135353a206275726e2066726f6d20746865207a65726f206164647260448201526265737360e81b6064820152608490fd5b5080fd5b5082346104a35760a03660031901126104a357610214610f32565b9161021d610f4c565b92604435906064359060843567ffffffffffffffff811161049f576102459036908701611068565b926001600160a01b03918216913383148015610480575b610265906111bb565b87169161027383151561121e565b61027c82611467565b5061028684611467565b50818952602097898952868a20828b52895284878b20546102a982821015611278565b848c528b8b52888c20848d528b5203878b2055828a52898952868a20848b528952868a206102d88682546112d7565b905583828851858152878c8201527fc3d58168c5ae7397731d063d5bbf3d657854427343f4c083240f7aacaa2d0f628a3392a43b610314578880f35b918697989596949391868a9461035d8a519788968795869463f23a6e6160e01b9c8d8752339087015260248601526044850152606484015260a0608484015260a4830190610f62565b03925af1839181610451575b506103d257505050610379611389565b6308c379a0146103a1575b5162461bcd60e51b81529150819061039d908201611412565b0390fd5b6103a96113a4565b806103b45750610384565b61039d915193849362461bcd60e51b85528401526024830190610f62565b9194506001600160e01b0319909116036103f457505081808080808080808880f35b5162461bcd60e51b81529150819061039d90820160809060208152602860208201527f455243313135353a204552433131353552656365697665722072656a656374656040820152676420746f6b656e7360c01b60608201520190565b610472919250873d8911610479575b61046a8183610fd0565b810190611369565b9087610369565b503d610460565b5082895260016020908152868a20338b5290528589205460ff1661025c565b8780fd5b8280fd5b50346101f557806003193601126101f55760ff816020936104c6610f32565b6104ce610f4c565b6001600160a01b0391821683526001875283832091168252855220549151911615158152f35b508290346104a357806003193601126104a35761050f610f32565b90602435918215158093036105d2576001600160a01b03169233841461057e5750338452600160205280842083855260205280842060ff1981541660ff8416179055519081527f17307eab39ab6107e8899845ad3d59bd9653f200f220920489ca2b5937696c3160203392a380f35b6020608492519162461bcd60e51b8352820152602960248201527f455243313135353a2073657474696e6720617070726f76616c20737461747573604482015268103337b91039b2b63360b91b6064820152fd5b8480fd5b5082346104a35760803660031901126104a3576105f1610f32565b9160443560243560643567ffffffffffffffff8111610742576106179036908601611068565b916001600160a01b0386169161062e83151561149d565b61063781611467565b5061064182611467565b50808852602096888852858920848a5288528589206106618482546112d7565b905583898751848152858b8201527fc3d58168c5ae7397731d063d5bbf3d657854427343f4c083240f7aacaa2d0f62893392a43b61069d578780f35b926106e69287989596979286899689519687958694859363f23a6e6160e01b9b8c865233908601528560248601526044850152606484015260a0608484015260a4830190610f62565b03925af1839181610723575b5061070257505050610379611389565b9194506001600160e01b0319909116036103f4575050818080808080808780f35b61073b919250873d89116104795761046a8183610fd0565b90876106f2565b8680fd5b5082346104a357816003193601126104a357803567ffffffffffffffff8082116105d257366023830112156105d257818301359061078382610ff2565b9261079086519485610fd0565b82845260209260248486019160051b830101913683116108e457602401905b8282106108c1575050506024359081116108bd576107d0903690850161100a565b92825184510361086a57508151946107e786610ff2565b956107f486519788610fd0565b808752610803601f1991610ff2565b0136838801375b82518110156108545761084f9061083f6001600160a01b0361082c8387611193565b51166108388388611193565b51906110f1565b6108498289611193565b52611171565b61080a565b845182815280610866818501896110be565b0390f35b60849185519162461bcd60e51b8352820152602960248201527f455243313135353a206163636f756e747320616e6420696473206c656e677468604482015268040dad2e6dac2e8c6d60bb1b6064820152fd5b8580fd5b81356001600160a01b03811681036108e05781529084019084016107af565b8980fd5b8880fd5b50919034610b9e576003199260a0368501126101f557610906610f32565b9161090f610f4c565b9467ffffffffffffffff93604435858111610b9a57610931903690880161100a565b6064358681116105d257610948903690890161100a565b956084359081116105d2576109609036908901611068565b966001600160a01b03928316923384148015610b7b575b610980906111bb565b61098d83518951146112e4565b89169361099b85151561121e565b855b8351811015610a1f57806109b4610a1a9286611193565b516109bf828c611193565b5190808a526020908a82528b8b20898c528252828c8c8b82822054926109e785851015611278565b858352828752822091528452038c8c20558a528981528a8a2090898b5252610a138a8a209182546112d7565b9055611171565b61099d565b50949897909692959784878a517f4a39dc06d4c0dbc64b70af90fd698a233a518aa5d07e595d983b8c0526c8f7fb339180610a5b8a8a83611341565b0390a43b610a67578880f35b8798969751948593849363bc197c8160e01b98898652338c87015260248601526044850160a0905260a48501610a9c916110be565b82858203016064860152610aaf916110be565b90838203016084840152610ac291610f62565b0381865a94602095f1839181610b5b575b50610b3b57505050610ae3611389565b6308c379a014610b07575b905162461bcd60e51b815290819061039d908201611412565b610b0f6113a4565b80610b1a5750610aee565b61039d906020935193849362461bcd60e51b85528401526024830190610f62565b9193916001600160e01b031916036103f45750505f808080808080808880f35b610b7491925060203d81116104795761046a8183610fd0565b905f610ad3565b508386526001602090815287872033885290528686205460ff16610977565b8380fd5b80fd5b5082346104a35760031991608036840112610b9a57610bbe610f32565b9267ffffffffffffffff60243581811161074257610bdf903690860161100a565b9360443582811161049f57610bf7903690830161100a565b9160643590811161049f57610c0f9036908301611068565b6001600160a01b0387169390610c2685151561149d565b610c3387518551146112e4565b885b8751811015610c7a5780610c4c610c759287611193565b51610c57828b611193565b518c528b6020818152898b8320925252610a13898d209182546112d7565b610c35565b50909195929496848989517f4a39dc06d4c0dbc64b70af90fd698a233a518aa5d07e595d983b8c0526c8f7fb339180610cb48c8b83611341565b0390a43b610cc0578780f35b92610d0688602094610d25899a9b999895610d16988d51998a988997889663bc197c8160e01b9e8f8952339089015288602489015260a0604489015260a48801906110be565b90848783030160648801526110be565b91848303016084850152610f62565b03925af1839181610d60575b50610d4157505050610ae3611389565b9193916001600160e01b031916036103f4575050818080808080808780f35b610d7991925060203d81116104795761046a8183610fd0565b9086610d31565b50346101f557602090816003193601126104a357805192806002549060019082821c928281168015610e8b575b8785108114610e78578899509688969785829a5291825f14610e51575050600114610df5575b5050506108669291610de6910385610fd0565b51928284938452830190610f62565b9190869350600283527f405787fa12a823e0f2b7631cc41b3ba8828b3321ca811111fa75cd3aa3bb5ace5b828410610e395750505082010181610de6610866610dd3565b8054848a018601528895508794909301928101610e20565b60ff19168782015293151560051b86019093019350849250610de691506108669050610dd3565b634e487b7160e01b835260228a52602483fd5b93607f1693610dad565b5082346104a35760203660031901126104a357359063ffffffff60e01b82168092036104a35760209250636cdb3d1360e11b8214918215610ef2575b8215610ee1575b50519015158152f35b6301ffc9a760e01b14915083610ed8565b6303a24d0760e21b81149250610ed1565b50346101f557806003193601126101f557602090610f2b610f22610f32565b602435906110f1565b9051908152f35b600435906001600160a01b0382168203610f4857565b5f80fd5b602435906001600160a01b0382168203610f4857565b91908251928382525f5b848110610f8c575050825f602080949584010152601f8019910116010190565b602081830181015184830182015201610f6c565b6020810190811067ffffffffffffffff821117610fbc57604052565b634e487b7160e01b5f52604160045260245ffd5b90601f8019910116810190811067ffffffffffffffff821117610fbc57604052565b67ffffffffffffffff8111610fbc5760051b60200190565b81601f82011215610f485780359161102183610ff2565b9261102f6040519485610fd0565b808452602092838086019260051b820101928311610f48578301905b828210611059575050505090565b8135815290830190830161104b565b81601f82011215610f485780359067ffffffffffffffff8211610fbc576040519261109d601f8401601f191660200185610fd0565b82845260208383010111610f4857815f926020809301838601378301015290565b9081518082526020808093019301915f5b8281106110dd575050505090565b8351855293810193928101926001016110cf565b6001600160a01b0316908115611119575f525f60205260405f20905f5260205260405f205490565b60405162461bcd60e51b815260206004820152602a60248201527f455243313135353a2061646472657373207a65726f206973206e6f742061207660448201526930b634b21037bbb732b960b11b6064820152608490fd5b5f19811461117f5760010190565b634e487b7160e01b5f52601160045260245ffd5b80518210156111a75760209160051b010190565b634e487b7160e01b5f52603260045260245ffd5b156111c257565b60405162461bcd60e51b815260206004820152602e60248201527f455243313135353a2063616c6c6572206973206e6f7420746f6b656e206f776e60448201526d195c881bdc88185c1c1c9bdd995960921b6064820152608490fd5b1561122557565b60405162461bcd60e51b815260206004820152602560248201527f455243313135353a207472616e7366657220746f20746865207a65726f206164604482015264647265737360d81b6064820152608490fd5b1561127f57565b60405162461bcd60e51b815260206004820152602a60248201527f455243313135353a20696e73756666696369656e742062616c616e636520666f60448201526939103a3930b739b332b960b11b6064820152608490fd5b9190820180921161117f57565b156112eb57565b60405162461bcd60e51b815260206004820152602860248201527f455243313135353a2069647320616e6420616d6f756e7473206c656e677468206044820152670dad2e6dac2e8c6d60c31b6064820152608490fd5b9091611358611366936040845260408401906110be565b9160208184039101526110be565b90565b90816020910312610f4857516001600160e01b031981168103610f485790565b5f9060033d1161139557565b905060045f803e5f5160e01c90565b5f60443d1061136657604051600319913d83016004833e815167ffffffffffffffff918282113d60248401111761140157818401948551938411611409573d85010160208487010111611401575061136692910160200190610fd0565b949350505050565b50949350505050565b60809060208152603460208201527f455243313135353a207472616e7366657220746f206e6f6e2d455243313135356040820152732932b1b2b4bb32b91034b6b83632b6b2b73a32b960611b60608201520190565b604051906040820182811067ffffffffffffffff821117610fbc57604052600182526020820160203682378251156111a7575290565b156114a457565b60405162461bcd60e51b815260206004820152602160248201527f455243313135353a206d696e7420746f20746865207a65726f206164647265736044820152607360f81b6064820152608490fdfea26469706673582212200dcb033651712aa3ed684f48746c8c9112ffa866089b1ff4433a9b3d472fae0464736f6c63430008140033","linkReferences":{}},"methodIdentifiers":{"balanceOf(address,uint256)":"00fdd58e","balanceOfBatch(address[],uint256[])":"4e1273f4","burn(address,uint256,uint256)":"f5298aca","isApprovedForAll(address,address)":"e985e9c5","mint(address,uint256,uint256,bytes)":"731133e9","mintBatch(address,uint256[],uint256[],bytes)":"1f7fdffa","safeBatchTransferFrom(address,address,uint256[],uint256[],bytes)":"2eb2c2d6","safeTransferFrom(address,address,uint256,uint256,bytes)":"f242432a","setApprovalForAll(address,bool)":"a22cb465","supportsInterface(bytes4)":"01ffc9a7","uri(uint256)":"0e89341c"},"id":34}